:020000040800F2
:1000000070070020ED01000815250008211C0008DC
:1000100011250008FB150008AB32000800000000A5
:10002000000000000000000000000000DD270008C4
:10003000411A00080000000089250008C9280008AE
:10004000070200080702000807020008070200086C
:10005000070200080702000807020008070200085C
:10006000070200080702000807020008070200084C
:10007000070200080702000807020008070200083C
:10008000070200080702000807020008070200082C
:10009000070200080702000807020008070200081C
:1000A000070200080702000807020008070200080C
:1000B00007020008070200080702000807020008FC
:1000C00007020008070200080702000807020008EC
:1000D00007020008892F000815300008A930000821
:1000E00007020008070200080702000807020008CC
:1000F00007020008070200080702000807020008BC
:1001000007020008070200080702000807020008AB
:10011000070200080702000807020008070200089B
:10012000070200080702000807020008070200088B
:1001300000F002F800F04AF80AA090E8000C8244AF
:100140008344AAF10107DA4501D100F03FF8AFF28C
:10015000090EBAE80F0013F0010F18BFFB1A43F0A5
:10016000010318474C6800006C680000103A24BF77
:1001700078C878C1FAD8520724BF30C830C144BF0C
:1001800004680C607047000000230024002500264E
:10019000103A28BF78C1FBD8520728BF30C148BFEA
:1001A0000B607047662903F0E485642900F05280F3
:1001B000002070471FB500F0E1FB04000020002183
:1001C00003F068FAE0601FBD10B510BD00F0D6FC6A
:1001D0001146FFF7EFFF03F02FF900F0F4FC03B432
:1001E000FFF7F2FF03BC00F037FD0000094880472D
:1001F00009480047FEE7FEE7FEE7FEE7FEE7FEE709
:10020000FEE7FEE7FEE7FEE704480549054A064B20
:1002100070470000CD28000831010008700100205F
:100220007007002070030020700300200FB41CB57D
:10023000074B06AA7B4469460090059800F05FFBD7
:100240000020694600F06EFB1CBC5DF814FB00004A
:10025000ED0600002DE9F0410646002410687529DE
:10026000314616A510D0AFF30080002802DA4042D4
:1002700013A507E031688A0701D512A502E04907F6
:1002800004D511A5012401E0AFF3008000210A226A
:1002900006F1240709E0B0FBF2FCB0FBF2F302FB2D
:1002A0001C00303078541846491C0028F3D12346EE
:1002B0002A463046BDE8F04100F0B4B80000000026
:1002C0002D0000002B000000200000002DE9F04769
:1002D0004FF0000A89460446C0F820A02046E16895
:1002E0008847002876D0252806D0D4E901219047F8
:1002F000206A401C2062F1E7E1682046002588471B
:10030000C4F81CA006460027C4F818A02A2E09D05D
:10031000304603F039F838B304EB8708303EC8F8AC
:10032000186019E059F8041B204604EB870291611C
:10033000E1688847012F064618D1E069002820DAD5
:1003400025F020051DE0D8F8180000EB800006EB32
:1003500040003038C8F818002046E1688847064653
:1003600003F012F80028EED1012F0AD02E2E08D16A
:100370002046E16888477F1C0646022F45F020058D
:10038000C4DBA069002803DA404245F00105A06102
:10039000E80701D025F01005B6B1A6F141001928F3
:1003A00002D8203645F400654A463146204625608D
:1003B0004D46FFF7F7FE58B1012806D0ED1D25F098
:1003C000070000F1080989E704E005F1040985E761
:1003D00030468AE7206ABDE8F0874FF00002042922
:1003E000C0F0128010F0030C00F0A382CCF1040CDA
:1003F000BCF1020F18BF00F8012BA8BF20F8022B98
:10040000A1EB0C0100F095BA5FEAC17C24BF00F8B3
:10041000012B00F8012B48BF00F8012B70477047F3
:10042000704770472DE9F0470D46994692460446BD
:1004300000F124080168880604D5E06921F0100164
:10044000216000E00120A84201DD471B00E00027F9
:10045000A1697A1902EB0900081AA0612078C00688
:1004600002D42046AFF30080002608E0D4E9012141
:100470001AF806009047206A401C761C20624E4500
:10048000F4DB2078C0060AD52046AFF3008006E0F2
:10049000D4E9012130209047206A401C2062381E98
:1004A000A7F10107F4DC07E0D4E9012118F8050001
:1004B0009047206A401C2062281EA5F10105F3DC4C
:1004C0002046AFF300802078000602D50220BDE868
:1004D000F0870120FBE770472DE9FF4F0C461E46D1
:1004E0004FF0FF378BB0D2E90001DDF860800A9051
:1004F0008A46C1F30A5505B93D46002108464FF02A
:100500000000BAF1000F00F4400005DA00EB8000B3
:100510004FF4400101EA50004FEA9059B9F1010F40
:1005200000DDB9460A9850EA4A000ED044F6105051
:10053000A5F2FF3545432F14B8F1000F1ED07542C8
:10054000291E1EDDC9F100021CE0B8F1010F4FF0B9
:10055000000001D0302103E0F24305E02154401CAB
:10056000B042FBDB30460022002121540B99C1F838
:100570000880C1E900200FB0BDE8F08FBD1B6D1CE5
:10058000DEE74A4600DA694206A800F081FA06ABC7
:1005900093E8070003AB83E8070050460A9900F090
:1005A00062FB8DE80700A0F500501F38009003980B
:1005B000002D0ADD42F21F014A460844002303A928
:1005C0000390684600F0CBFD09E0A0F500504A46D4
:1005D0001F38002303A90390684600F0D5FD8DE87D
:1005E00007000004000C03D04FF0FF30410800E08A
:1005F0001046B8F1000F03D00022009215461EE00D
:10060000751E05D400F0BEF9303262556D1EF9D565
:10061000B3460122084302D000227F1C04E0207868
:10062000302801D100227F1E002A099784D01DE0C6
:10063000112D07DA00F0A6F9303262556D1C50EA30
:100640000102F5D1084302D00098C8B10EE00021A4
:10065000681E05E0235C625C63542254401E491C02
:100660008142F7DBAB46A81B401E0990002004F82E
:100670000B000B98099AC0F80880C0E9002B7AE7B4
:1006800011264FF0000857E72DE9F04F8846044641
:10069000D21D22F0070191B0D1E90001CDE90A0194
:1006A00002F05EFE02460B98C00F01D02D2007E03D
:1006B0002068810701D52B2002E0202101EAC0003B
:1006C000032A099001D0072A05DB0346414620464C
:1006D00000F09EF90BE12078800601D5E06900E08A
:1006E0000620B8F1650F814606D0B8F1660F18D024
:1006F000B8F1670F70D131E00020B9F1110F00900F
:1007000001DB112301E009F101030AAA01A90CA8E8
:10071000FFF7E2FEDDE90C70002609F101058346D2
:1007200047E001204B4600904FF000470AAA01A97C
:100730000CA8FFF7D1FEDDE90DB00C995D4600264F
:1007400010B909F101000D18B9EB050003D4C0F18F
:10075000FF3609F10105A5EB09002BE0B9F1010F06
:1007600001DA4FF001090020B9F1110F009048465D
:1007700001DD112300E003460AAA01A90CA8FFF736
:10078000ABFEDDE90C704D4600268346207800075D
:100790000AD4AB4500DA5D4601A8012D04DD4119FC
:1007A00011F8011C302907D04F4502DA17F1040F68
:1007B00004DA012082460FE06D1EEEE7002F02DC16
:1007C000ED1B3E4403E0781CA84200DD7D1CB81BF5
:1007D00000F1010A4FF000472078000703D4AA4532
:1007E00001DB4FF0FF3A0021B7F1004F0DF1430854
:1007F0008DF8431024D002202B23002F01DA7F42F2
:100800002D230A21021EA0F1010000DC5FB197FB3D
:10081000F1FC97FBF1F201FB1C7C17460CF1300C4C
:1008200008F801CDEEE7A8F1010003702188090561
:1008300001D5452100E06521A0F1010800F8011C67
:1008400009980FA9A1EB0807FF1D00B1012041196C
:1008500001EBEA70A1693844081A401EA0612078B3
:10086000C00602D42046AFF30080099828B1D4E92D
:1008700001219047206A401C20622078C00622D5C2
:100880002046AFF300801EE0002E04DBB34502DDFE
:1008900001A8805D00E03020D4E901219047206A62
:1008A000401C2062761CAAF101005FEA000A0AD10E
:1008B00000F064F8C0680168405CD4E90121904709
:1008C000206A401C2062281EA5F10105DCDC07E03F
:1008D000D4E9012118F8010B9047206A401C2062DE
:1008E000381EA7F10107F3DC2046AFF30080032098
:1008F00011B041E601694A1C02610878704700B5F1
:100900008FB0CDE901310021059105497944CDE948
:10091000031011466846FFF7D9FC0FB000BD000078
:10092000E5FFFFFF0A6802F8010B0A6070474FF00D
:10093000000200B5134694469646203922BFA0E82F
:100940000C50A0E80C50B1F12001BFF4F7AF09073B
:1009500028BFA0E80C5048BF0CC05DF804EB89002C
:1009600028BF40F8042B08BF704748BF20F8022B6F
:1009700011F0804F18BF00F8012B704700487047F6
:100980002C01002030B5B0F10A024FEA900E71F14F
:1009900000034EEA817EB0EB0E0061EB91014FEA5D
:1009A000101E4EEA017E10EB0E0041EB11114FEAD2
:1009B000102E4EEA016E10EB0E0041EB11214FEAB2
:1009C000104E4EEA014E10EB0E0041EB1141401863
:1009D00041F100014FEAD00040EA41704FEAD101F5
:1009E00010EB80054FEA810444EA907444EB010463
:1009F0006D1944EB0404521BA3414FF0000348BFA0
:100A00000A3200D530BD401C41F1000130BD00006C
:100A10002DE9F0411F46044603260168072A01F428
:100A2000006004DB08B116A505E016A503E008B1D7
:100A300015A500E015A521F010002060A069C01EDA
:100A4000A0610FB1401EA0612046AFF300804FB1FE
:100A5000D4E9012138469047206A401C2062C01C1E
:100A6000206206E0206AFAE7D4E9012115F8010BBB
:100A70009047761EF8D22046AFF30080BDE8F081A3
:100A80004E414E006E616E00494E4600696E660032
:100A90002DE9F047814616468AB0354878440DC89E
:100AA0008DE80D0032487844801C03AC0DC884E802
:100AB0000D0041F69B300844372190FBF1F290FB8A
:100AC000F1F5A5F1800501FB12041B3C02D564423F
:100AD000012000E00020DFF898A080460027FA44BB
:100AE000AAF1BE0A0EE0E0070AD03246684607EBDC
:100AF000470101230AEB810100F046FB8DE8070066
:100B000064107F1C002CEED1194F7F44AE3F19E0DA
:100B1000E80715D007EB04100DF1180A90E80E0055
:100B20008AE80E00C068F04201D198190890324658
:100B3000012306A903A800F027FB03AB83E8070005
:100B40006D10641C002DE3D14FF00103324669465D
:100B5000B8F1000F03A802D000F001FB01E000F0A3
:100B600013FBC9E90001C9F808200AB0BDE8F08705
:100B7000F85E0000004870470C0100207546FFF742
:100B8000F9FFAE4605006946534620F0070085464A
:100B900018B020B5FFF738FBBDE820404FF0000645
:100BA0004FF000074FF000084FF0000B21F0070155
:100BB000AC46ACE8C009ACE8C009ACE8C009ACE898
:100BC000C0098D46704710B50446AFF3008020463B
:100BD000BDE81040FFF703BB4FF0013C50F8042B79
:100BE00051F8043B9A4221D1A2EB0C03934313EA40
:100BF000CC1317D150F8042B51F8043B9A4215D16D
:100C0000A2EB0C03934313EACC130BD150F8042B43
:100C100051F8043B9A4209D1A2EB0C03934313EA27
:100C2000CC13DBD04FF00000704700BFD01A01BAE0
:100C3000B1FA81F101F0180122FA01F0CB40C1F1C3
:100C40002001DBB2C0B2C01A2CFA01F3D11A9143D1
:100C500011EAC311E6D1704701491820ABBEFEE787
:100C60002600020070475FEA400C08BF91F0000FB9
:100C70004FEA8C234FEAC12243EA51514FEA1C50FC
:100C800018BF00F5F0404FEA300018BF41F00041B6
:100C90005FEA6C5C00F02980BCF1FF3F08BF40F0C8
:100CA00080407047130C06BF12044FF0100C4FF039
:100CB000000C130E04BF12020CF1080C130F04BF3A
:100CC00012010CF1040C930F04BF92000CF1020C02
:100CD000D30F04BF52000CF1010C11464FF000027B
:100CE000A0F11F00A0EB0C00704711F0004F08BFEF
:100CF000704731F000413FF4D5AF0B0C06BF09043B
:100D00004FF0100C4FF0000C0B0E04BF09020CF159
:100D1000080C0B0F04BF09010CF1040C8B0F04BF6E
:100D200089000CF1020CCB0F04BF49000CF1010C3F
:100D3000CCF12003A0EB0C0022FA03F302FA0CF230
:100D400041EA030100F10100704720F07F4C80EA86
:100D5000030023F07F47ACEB070303F57C5300F05F
:100D6000004003F1FF032DE980494FEA154B09B418
:100D70004FEA144325EA0B4E24EA03480FF20426F7
:100D800006EB132749083E785FEA320203FB066749
:100D9000C7F5000707FB06F64FEA54374FEAD64679
:100DA00006F1020607FB066CCCF1005C4FEA1C471B
:100DB0002CEA074C07FB06F40CFB06F504EB154682
:100DC0004FEA961634BF00204FF000404FEAD1376B
:100DD00006FB07FC4FEA1C4C0CFB0BF7D21B03FB7A
:100DE0000CF761EB07010CFB0EF7B0EB074072EB61
:100DF00017420CFB08F734BFA2EB0742B2EB0742E5
:100E000061EB17414FEA0C444FEA910706FB07FCE0
:100E10004FEA1C4C0CFB0BF7B0EBC74072EB5732A0
:100E200003FB0CF734BFA2EBC742B2EBC74261EB46
:100E300057310CFB0EF7B0EBC70072EB57720CFB8F
:100E400008F734BFA2EBC702B2EBC70261EB5771E0
:100E5000039F4FEA816141EA921104EBCC044FEA0F
:100E6000D1374FEA826206FB07FC42EA90124FEA52
:100E700080604FEA1C4C0CFB0BF7D21B03FB0CF7FA
:100E800061EB07010CFB0EF7B0EB074072EB17426A
:100E90000CFB08F734BFA2EB0742B2EB074261EB51
:100EA00017414FEA8C554FEA910704EB9C2406FB4F
:100EB00007FC4FEA1C4C0CFB0BF7B0EBC74072EB86
:100EC000573203FB0CF734BFA2EBC742B2EBC74269
:100ED00061EB57310CFB0EF7B0EBC70072EB5772AA
:100EE0000CFB08F734BFA2EBC702B2EBC70261EB01
:100EF000577115EB4C254FEA816141EA92114FEA97
:100F000082624FEAD13742EA901206FB07FC44F1B5
:100F100000044FEA80604FEA1C4C0CFB0BF7D21B1D
:100F200003FB0CF761EB07010CFB0EF7B0EB07407E
:100F300072EB17420CFB08F734BFA2EB0742B2EB8F
:100F4000074261EB174115EB1C154FEA813141EA6D
:100F500092414FEA823242EA90424FEA80304FEAB1
:100F60000C7644F1000448EA03434EEA0B484FF084
:100F7000000EB2EB080C71EB030724BF6246394642
:100F80004EEB0E0E4FF0000B0018524149414BEB57
:100F90000B0BB2EB080C71EB03077BF1000B24BFCA
:100FA000624639464EEB0E0E4FF0000B00185241D0
:100FB00049414BEB0B0BB2EB080C71EB03077BF1D8
:100FC000000B24BF624639464EEB0E0E51EA020773
:100FD00018BF46F0010616EB0E7655F1000254F1EB
:100FE000000103D5BDE88901BDE80088BDE889019D
:100FF000BDE80048B619524141EB0101A3F10103DC
:10100000704780807F7E7D7C7B7A79787776767575
:101010007473727171706F6E6E6D6C6C6B6A6A69ED
:101020006868676666656464636362616160605F87
:101030005F5E5E5D5D5C5C5B5B5A5A595958585700
:101040005756565555555454535352525251515068
:1010500050504F4F4F4E4E4D4D4D4C4C4C4B4B4BBB
:101060004A4A4A4949494848484747474746464601
:10107000454545444444444343434342424242413C
:101080004141002B9C4630D477002BD01CB54FEA51
:10109000370703B44FF010004FF01001BAF1000F02
:1010A00006D0BCF1000FDCBF40F0080040F00801A2
:1010B0004FF000000FBCBDE810400BF1010BBBF17D
:1010C000010F08BF5FEA170722BF12F1010211F1F9
:1010D00001014FF0004143F1000300F0004043EAFA
:1010E00000007047F9D35708D0E746EA064613F1E7
:1010F000400F4FEA16461FDD13F1200FDFBF1643E6
:101100000A46002120335B42BED0C3F1200746EAE5
:10111000064602FA07F74FEA164646EA0706C3F103
:10112000200722FA03F201FA07F721FA03F14FF040
:10113000000342EA0702A7E746EA020646EA064635
:101140004FEA164646EA0106BCBF46EA0646360C9A
:101150004FF000034FF000024FF0000194E72DE93B
:10116000804C9A46934670B491E8380007C831EA3B
:10117000400C48BF34EA430C03D5FFF7E6FDFFF708
:1011800080FFF0BCBDE8008C2DE9804C9A46934668
:1011900070B491E8380007C810F0804F08BF13F012
:1011A000804F03D100F005F8FFF76BFFF0BCBDE8FE
:1011B000008C20F07F4780EA030023F07F4C07EB90
:1011C0000C03A3F57C5300F00040A3F1FE0392F062
:1011D000000F00F0B38095F0000F00F077802DE94C
:1011E00001494FEA11404FEA144621EA004800FB4A
:1011F00006FC24EA064708FB06F607FB08F800FB96
:1012000007F718EB06484CEB164C4FEA124B18EB5D
:1012100007484FEA15464CEB174022EA0B4E0BFBF2
:1012200006FC25EA06470EFB06F607FB0EFE0BFB47
:1012300007F71EEB064E4CEB164C4FF000061EEB6C
:10124000074E4CEB174B18EB0B0840F1000018EB66
:101250000E0B58EB000840F100008F1A4FF0000110
:101260003CBFC943661B14BFB5EB040C00213CBF57
:10127000C943F61B4FEA17444EEA8E0E27EA04458F
:101280004FEA1C4704FB07622CEA074C05FB07F7F3
:101290000CFB05F604FB0CFC16EB074642EB174271
:1012A00016EB0C4642EB1C421BEB060658EB020207
:1012B000414146EA9E0601D5BDE80189B619524171
:1012C00041EB0101A3F10103BDE801894FEA144597
:1012D0004FEA114724EA054621EA074C05FB07F4CB
:1012E00006FB07F70CFB06F105FB0CFC11EB0741B5
:1012F00044EB17444FEA124711EB0C4144EB1C44FA
:1013000022EA074C05FB07F206FB07F70CFB06F683
:1013100005FB0CFC16EB074642EB174216EB0C469E
:1013200042EB1C456A1854F1000148BF7047B619DA
:10133000524141EB0101A3F10103704795F0000F09
:1013400037D04FEA11424FEA144721EA024624EA15
:10135000074C02FB07F106FB07F70CFB06F402FB48
:101360000CFC14EB074441EB17414FEA154714EB13
:101370000C4441EB1C4125EA074C02FB07F506FB38
:1013800007F70CFB06F602FB0CFC16EB074645EBD9
:10139000174516EB0C4645EB1C42121951F10001A2
:1013A00048BF7047B619524141EB0101A3F1010357
:1013B00070474FEA14454FEA114724EA054621EAEF
:1013C000074C05FB07F106FB07F70CFB06F24FF095
:1013D000000605FB0CFC12EB074241EB174112EB38
:1013E0000C4251EB1C4148BF7047921841EB010180
:1013F000A3F10103704721B1826842F001028260CB
:1014000003E0826822F001028260704710B5044652
:101410001248844208D10121401501F0E3F800216F
:10142000601501F0DFF817E00D48844208D1012172
:10143000001501F0D7F80021201501F0D3F80BE0DA
:101440000848844208D10121C80301F0CBF80021EB
:101450004FF4004001F0C6F810BD00000024014028
:1014600000280140003C0140014600208A6802F04B
:1014700004020AB1012000E0002070470146C86C58
:1014800080B270470246002013680B400BB1012068
:1014900000E000207047014600208A6802F0080240
:1014A0000AB1012000E000207047000030B502467C
:1014B0000020002350680F4C20400D790C6844EA4E
:1014C00005242043506090680B4C2040D1E9025421
:1014D0002C434D7944EA450420439060D06A20F4BF
:1014E00070000C7C641EE4B2234340EA0350D062D7
:1014F00030BD0000FFFEF0FFFDF7F1FFF0B5044640
:101500000D4600200021092D11DDE068A5F10A0635
:1015100006EB4607072606FA07F18843A5F10A06F7
:1015200006EB460603FA06F10843E0600CE020698A
:1015300005EB4507072606FA07F1884305EB450644
:1015400003FA06F108432061072A0FDA606B561E82
:1015500006EB86071F2606FA07F18843561E06EBA0
:10156000860605FA06F10843606322E00D2A0FDAC9
:10157000206BD61F06EB86071F2606FA07F1884365
:10158000D61F06EB860605FA06F10843206310E035
:10159000E06AA2F10D0606EB86071F2606FA07F1A0
:1015A0008843A2F10D0606EB860605FA06F108430C
:1015B000E062F0BD816841F008018160704721B1AF
:1015C000826842F4A002826003E0826822F4A002F2
:1015D00082607047816841F0040181607047024673
:1015E000002006E0431C32F8133022F81030431C70
:1015F00098B24B1E8342F5DC704700BFFEE7000047
:1016000010B50221064800F007FB192001F0C8FEC2
:101610000221034800F002FB1E2001F0DBFE10BD9A
:101620000008014010B50121042000F0CBFF00F0BC
:101630001BF80221024800F0F1FA01F0ACFE10BDE7
:101640000008014008B504208DF803000220ADF821
:10165000000003208DF802006946024800F048FAB5
:1016600008BD00000008014008B510208DF80300F7
:101670000220ADF8000003208DF802006946024800
:1016800000F036FA08BD00000008014070B50024E3
:101690000C49487802F0B2F9044604E00A492046B1
:1016A00002F0AEF804464FF07E51204602F0BAFA3E
:1016B000F4D90449087802F0A1F90546214602F060
:1016C00031F870BD050000200000204170B50024F5
:1016D0000C49C87802F092F9044604E00A49204611
:1016E00002F08EF804464FF07E51204602F09AFA3E
:1016F000F4D90449887802F081F90546214602F0C0
:1017000011F870BD050000200000204170B50024D4
:1017100044E000263EE02348005D4006000E2149DB
:101720000855C82502E0012001F054FE02211E48A0
:1017300000F069FA20B1281EA5F10101CDB2F2DC5A
:1017400005B970BDC82502E0012001F043FE022169
:10175000154800F058FA20B9281EA5F10101CDB2B4
:10176000F2DC05B9EDE7322001F034FE02210E482B
:1017700000F049FA30B10B48005D40F00100094922
:10178000085505E00748005D20F0010005490855AF
:10179000701CC6B2082EBEDB601CC4B2052CB8DBC0
:1017A00000BFCEE7050000200008014010B5FFF79C
:1017B0005BFFFFF725FFFFF745FF00F021F8FFF77C
:1017C000A5FFFFF751FF02210B4800F027FA0B4855
:1017D00000780A4949780844084989780844074943
:1017E000C9780844C0B205490979884201D101206D
:1017F00010BD0020FCE700000008014005000020AB
:1018000010B5C82402E0012001F0E4FD02210F48D8
:1018100000F0F9F920B1201EA4F10101CCB2F2DCF4
:1018200004B910BDC82402E0012001F0D3FD02215B
:10183000064800F0E8F920B9201EA4F10101CCB25D
:10184000F2DC04B9EDE700BFEBE70000000801405F
:1018500008B50121082000F0B5FE10208DF8030026
:101860004FF4A040ADF8000003208DF80200694657
:10187000074800F03DF94FF48051054800F0CCF9DD
:101880004FF48041024800F0C7F901F084FD08BD23
:10189000000C014070B505464FF480512F4800F010
:1018A000BBF94FF480412D4800F0B8F900F0CCF9B5
:1018B000002620E04FF48051284800F0ADF90220C6
:1018C00001F088FD05F0010028B14FF400512348D4
:1018D00000F0A4F904E04FF40051204800F09CF916
:1018E0006D104FF480511D4800F098F9022001F06E
:1018F00071FD701CC6B2082EDCDB00F093F90024E9
:1019000000261AE04FF48051144800F085F90220B7
:1019100001F060FD64104FF40051104800F073F9BD
:1019200044EAC010C4B24FF480510C4800F076F97C
:10193000022001F04FFD701CC6B2082EE2DB4FF40E
:101940008051064800F068F9022001F043FD4FF491
:101950008041024800F060F9204670BD000C014053
:1019600010B58120FFF796FF3449087008460078CB
:1019700000F00F000978091101EB810100EB410033
:101980002E4908708320FFF785FF2C4948700846D0
:10199000407800F00F004978091101EB810100EB5C
:1019A0004100264948708520FFF774FF234988705D
:1019B0000846807800F00F008978C1F3001101EB30
:1019C000810100EB41001D4988708720FFF762FF0D
:1019D0001A49C8700846C07800F00F00C97809118C
:1019E00001EB810100EB41001449C8708920FFF729
:1019F00051FF124908710846007900F00F0009797B
:101A0000091101EB810100EB41000C4908718B20A9
:101A1000FFF740FF094948718D20FFF73BFF074959
:101A200088710846807900F00F008979091101EB6F
:101A3000810100EB41000149887110BD0A000020BE
:101A40007047000000B587B0012144F2040000F0A7
:101A5000B9FD18208DF81B004FF40070ADF8180088
:101A600003208DF81A0006A91F4800F041F8042051
:101A70008DF817000002ADF8140003208DF8160051
:101A800005A9194800F034F84FF4165001900020D1
:101A9000ADF810000C20ADF80E000020ADF80C00E1
:101AA000ADF80A00ADF8080001A9104801F088FB64
:101AB00001210E4801F046FB25208DF80000012091
:101AC0008DF8030002208DF8010001208DF802003E
:101AD000684600F021FD012240F22551034801F043
:101AE0004AFB07B000BD000000080140003801407B
:101AF0002DE9F041024600250026002000230024A5
:101B0000002791F803C00CF00F0591F803C00CF00A
:101B1000100CBCF1000F03D091F802C04CEA05058F
:101B200091F800C0BCF1000F31D0146800202BE008
:101B30004FF0010C0CFA00F3B1F800C00CEA0306F8
:101B40009E4220D183004FF00F0C0CFA03F7BC43E8
:101B500005FA03FC4CEA040491F803C0BCF1280F19
:101B600006D14FF0010C0CFA00FCC2F814C00AE0D8
:101B700091F803C0BCF1480F05D14FF0010C0CFAED
:101B800000FCC2F810C0401C0828D1D31460B1F882
:101B900000C0BCF1FF0F34DD546800202EE000F1DE
:101BA000080C4FF0010808FA0CF3B1F800C00CEA79
:101BB00003069E4221D183004FF00F0C0CFA03F76D
:101BC000BC4305FA03FC4CEA040491F803C0BCF1E1
:101BD000280F05D100F1080C08FA0CF8C2F814809F
:101BE00091F803C0BCF1480F07D100F1080C4FF089
:101BF000010808FA0CF8C2F81080401C0828CED35F
:101C00005460BDE8F0810246002093680B400BB1A0
:101C1000012000E00020704741617047016170477A
:101C200000BFFEE708B504208DF80300C002ADF840
:101C3000000003208DF8020069460248FFF758FFB4
:101C400008BD0000000C014008B510208DF803000D
:101C50004002ADF8000003208DF8020069460248FA
:101C6000FFF746FF08BD0000000C014070B50546B7
:101C7000EF2340F23F120021084600F00FFA2C201B
:101C800000F064FA002403E0284600F055FA641CD2
:101C9000B4F5963FF8D370BD2DE9F04704460D46E4
:101CA00016461F46DDF82090E81983B2A01982B2CB
:101CB0002946204600F0F2F92C2000F047FAA0193E
:101CC000001B401CE919491B491C00FB01F804E0FA
:101CD000484600F031FAA8F10108B8F1000FF7D139
:101CE000BDE8F0872DE9FF5F05460E461746002444
:101CF00016E0387804EB041101EB84115C4A12F809
:101D0000111088420AD1787804EB041101EB841198
:101D100002EB41014978884200D103E0601CC4B263
:101D2000162CE6DB00BF162C01D1BDE8FF9F0F98F3
:101D300010284BD106F10F0083B205F10F0082B2DB
:101D40003146284600F0AAF900B9EEE72C2000F051
:101D5000FDF94FF0010835E04FF001092BE004EBED
:101D6000041000EB8410424901EB4000801CA8F1F4
:101D70000101022202FB0191491E10F801A04FF05F
:101D8000000B11E00AF0800018B1039800F0D4F9BC
:101D900002E00E9800F0D0F94FEA4A604FEA106A6C
:101DA0000BF1010000F0FF0BBBF1080FEADB09F1BA
:101DB000010000F0FF09B9F1020FD0DD08F10100C8
:101DC00000F0FF08B8F1100FC6DD4FE00F98202893
:101DD0004BD106F11F0083B205F11F0082B23146DC
:101DE000284600F05BF900B99FE72C2000F0AEF91F
:101DF0004FF0010835E04FF001092BE004EB04102F
:101E000000EB84101A4901EB40002230A8F10101D7
:101E1000042202FB0191491E10F801A04FF0000BB3
:101E200011E00AF0800018B1039800F085F902E093
:101E30000E9800F081F94FEA4A604FEA106A0BF100
:101E4000010000F0FF0BBBF1080FEADB09F1010014
:101E500000F0FF09B9F1040FD0DD08F1010000F036
:101E6000FF08B8F1200FC6DD00E05EE700BF5CE7C9
:101E7000265B00082DE9FF4F85B081468A46002089
:101E8000039083460798A0EB09050898A0EB0A0683
:101E9000CDF80890CDF804A0002D01DD012705E064
:101EA0000DB9002702E04FF0FF376D42002E02DD32
:101EB0004FF0010806E016B94FF0000802E04FF0BD
:101EC000FF387642B54201DD2C4600E03446F0236F
:101ED0004FF4A0720021084600F0E0F800200490C2
:101EE0001EE0019A91B2029A90B2129A00F01FF885
:101EF000039828440390B3440398A04205DD039857
:101F0000001B0390029838440290A34504DDABEB1C
:101F1000040B0198404401900498401C80B2049046
:101F2000611C04988842DCDD09B0BDE8F08F70B513
:101F300004460D46164629B220B200F0D6F82C20F1
:101F400000F004F9304600F0F7F870BD2DE9FC47C9
:101F50000746894615469A46DDE90A84002628E0A8
:101F600028785E2813D16D1C07EBC60188B2534652
:101F70002A464946CDE90084FFF7B4FE2046E11722
:101F800004EB517106EBE1018EB2AD1C11E0CDE91D
:101F900000842A7807EBC60188B25346494600F010
:101FA0000DF82046E11704EB117106EB21118EB2FA
:101FB0006D1C28780028D3D1BDE8FC872DE9FF4FA0
:101FC00081B081468A4690460F9D002705EBD5706B
:101FD00009EB6000401E82B20AEB0500401E83B28E
:101FE00051464846009500F059F810B905B0BDE8D3
:101FF000F08F2C2000F0AAF8102D1DD1002418E03D
:10200000A8F12000234901EB0010075D00260CE039
:1020100007F0010018B1049800F08EF802E00E9865
:1020200000F08AF87F10701C86B2082EF0DB601C6E
:1020300084B2102CE4DB2AE0202D28D1002424E0F7
:1020400000261EE0A8F1200004EB8000124901EBFD
:102050000010875D4FF0000B0EE007F0010018B193
:10206000049800F069F802E00E9800F065F87F101F
:102070000BF101001FFA80FBBBF1080FEDDB701CB8
:1020800086B2102EDEDB601C84B2042CD8DB00BFCD
:10209000ACE70000763D0008664300082DE9F041FA
:1020A00007460C4615461E46B7F5A07F06DCF02C09
:1020B00004DCB5F5A07F01DCF02E02DD0020BDE8D8
:1020C000F0812A2000F042F8384600F035F8284622
:1020D00000F032F82B2000F039F8204600F02CF800
:1020E000304600F029F80120E9E770B504460D46B6
:1020F0002A2000F02BF8A0B200F01EF82B2000F0F0
:1021000025F8A8B200F018F870BD000010B504461C
:1021100010210748FFF780FD02210648FFF77EFDEA
:10212000204600F04BFB10210148FFF777FD10BD62
:1021300000080140000C014010B504462012FFF7D2
:10214000E5FFE0B2FFF7E2FF10BD000010B5044666
:1021500010210748FFF760FD02210648FFF75CFDEC
:10216000204600F02BFB10210148FFF757FD10BD62
:1021700000080140000C014008B501211C2000F0BE
:1021800021FA10208DF803000320ADF800008DF82F
:10219000020069461548FFF7ABFC4FF40040ADF86C
:1021A000000069461248FFF7A3FC1020ADF80000BC
:1021B00069461048FFF79CFC4FF400410C48FFF7BC
:1021C0002BFD10210B48FFF729FD00F0BBFA01F0B1
:1021D000E2F800F011F84FF6FF70FFF747FD4FF4FB
:1021E00000410348FFF71AFD08BD0000000C014044
:1021F000001001400008014010B501218B48FFF795
:102200000DFD012001F0CCF801218848FFF704FD05
:102210000A2001F0C5F801218448FFF7FFFC78206F
:1022200001F0BEF81120FFF791FF0020FFF76EFFCD
:10223000CF20FFF78BFF0020FFF768FFC120FFF7DB
:1022400065FF3020FFF762FFED20FFF77FFF64207E
:10225000FFF75CFF0320FFF759FF1220FFF756FF3F
:102260008120FFF753FFE820FFF770FF8520FFF77D
:102270004DFF1120FFF74AFF7820FFF747FFF620B8
:10228000FFF764FF0120FFF741FF3020FFF73EFF1B
:102290000020FFF73BFFCB20FFF758FF3920FFF767
:1022A00035FF2C20FFF732FF0020FFF72FFF3420EF
:1022B000FFF72CFF0520FFF729FFF720FFF746FF68
:1022C0002020FFF723FFEA20FFF740FF0020FFF761
:1022D0001DFF0020FFF71AFFC020FFF737FF202067
:1022E000FFF714FFC120FFF731FF1120FFF70EFFAA
:1022F000C520FFF72BFF3120FFF708FF3C20FFF739
:1023000005FFC720FFF722FFA920FFF7FFFE3A20B5
:10231000FFF71CFF5520FFF7F9FE3620FFF716FFE9
:10232000E820FFF7F3FEB120FFF710FF0020FFF7D2
:10233000EDFE1820FFF7EAFEB420FFF707FF0020AC
:10234000FFF7E4FE0020FFF7E1FEF220FFF7FEFEBC
:102350000020FFF7DBFE2620FFF7F8FE0120FFF745
:10236000D5FEE020FFF7F2FE0F20FFF7CFFE17208B
:10237000FFF7CCFE1420FFF7C9FE0920FFF7C6FEC9
:102380000C20FFF7C3FE0620FFF7C0FE4320FFF737
:10239000BDFE7520FFF7BAFE3620FFF7B7FE082016
:1023A000FFF7B4FE1320FFF7B1FE0520FFF7AEFEE6
:1023B0001020FFF7ABFE0B20FFF7A8FE0820FFF769
:1023C000A5FEE120FFF7C2FE0020FFF79FFE1F20C1
:1023D000FFF79CFE2320FFF799FE0320FFF796FEF0
:1023E0000E20FFF793FE0420FFF790FE3920FFF741
:1023F0008DFE2520FFF78AFE4D20FFF787FE062081
:10240000FFF784FE0D20FFF781FE0B20FFF77EFE15
:102410003320FFF77BFE3720FFF778FE0F20FFF712
:1024200075FE2920FFF792FE10BD0000000C014050
:1024300000B587B00121082000F0C4F8012188040C
:1024400000F0B0F818208DF81B004FF48060ADF854
:10245000180003208DF81A0006A91F48FFF748FB53
:1024600004208DF81B004002ADF8180003208DF801
:102470001A0006A91848FFF73BFB4FF416500290CC
:102480000020ADF814000C20ADF812000020ADF8CB
:102490001000ADF80E00ADF80C0002A90F4800F0D6
:1024A0008FFE012240F225510C4800F064FE01210C
:1024B0000A4800F047FE27208DF8040001208DF81F
:1024C000070003208DF8050001208DF8060001A803
:1024D00000F022F807B000BD000C014000480040A9
:1024E00010B500240DE000BF8021074800F036FE43
:1024F0000028F9D00548015D034800F0D2FE601CB9
:10250000C4B2092CEFDB10BD00480040126900087E
:1025100000BFFEE77047000070B5002100230F22C6
:10252000C47804B3154C246804F4E064C4F5E06492
:10253000210AC1F10403CA40447804FA03F1847803
:102540001440214309010E4C0678A155047804F08B
:102550001F050124AC4005786D11AD0005F1E025A3
:10256000C5F8004109E0047804F01F050124AC40DF
:10257000044D0678761145F8264070BD0CED00E05C
:1025800000E400E080E100E0704700000146002028
:10259000034A506820F440400843506070470000F0
:1025A0000010024029B1064AD2690243044BDA61A5
:1025B00004E0034AD2698243014BDA6170470000AC
:1025C0000010024029B1064A92690243044B9A6105
:1025D00004E0034A92698243014B9A61704700000C
:1025E0000010024029B1064AD2680243044BDA6067
:1025F00004E0034AD2688243014BDA60704700006E
:102600000010024030B500210022002400232D4D8F
:102610006D6805F00C0121B1042905D0082923D1EA
:1026200005E0294D056022E0274D05601FE0254D9E
:102630006D6805F47012234D6D6805F48034022531
:1026400005EB92421CB9214D554305600BE01D4D31
:102650006D6805F400351DB11C4D5543056002E061
:10266000194D5543056002E0174D056000BF00BFDE
:10267000144D6D6805F0F0010909154D6B5C056896
:10268000DD4045600F4D6D6805F4E061090A104DAD
:102690006B5C4568DD4085600A4D6D6805F46051EE
:1026A000C90A0B4D6B5C4568DD40C560054D6D6822
:1026B00005F44041890B074D6B5CC568B5FBF3F52C
:1026C000056130BD0010024000127A0000093D0093
:1026D0001B0000202B00002021B1028842F04002A4
:1026E000028004E002884FF6BF731A4002807047F0
:1026F0000246002013890B400BB1012000E00020AE
:1027000070478181704710B50022028802F441525F
:102710000B884C8823438C882343CC8823430C8923
:1027200023434C8923438C892343CC8923431A4375
:102730000280838B4FF2FF74234083830B8A0382D2
:1027400010BD000000B587B0012141F20500FFF780
:1027500039FF18208DF81B00E020ADF81800032089
:102760008DF81A0006A91348FFF7C2F90020ADF84A
:1027700004004FF48270ADF806000020ADF80800A8
:102780000220ADF80A000120ADF80C004002ADF8BF
:102790000E000020ADF81000ADF81200ADF81400E6
:1027A00001A90548FFF7AFFF01210348FFF794FF98
:1027B00007B000BD000801400030014010B50446DC
:1027C00000BF02210448FFF793FF0028F9D02146FB
:1027D0000148FFF796FF10BD00300140704710B56B
:1027E00000F002F810BD00000CB500200190009030
:1027F0003348006840F480303149086000BF3048F9
:10280000006800F4003000900198401C019000988E
:1028100018B90198B0F5A06FF1D12948006800F40B
:10282000003010B10120009001E0002000900098DD
:10283000012843D12348006840F010002149086076
:102840000846006820F0030008600846006840F071
:10285000020008601A484068194948600846406804
:1028600048600846406840F4806048600846406818
:1028700020F47C1048600846406840F4E810486046
:102880000846006840F08070086000BF0C4800688F
:1028900000F000700028F9D00948406820F00300DB
:1028A000074948600846406840F00200486000BFA1
:1028B0000348406800F00C000828F9D10CBD000066
:1028C00000100240002002407047000010B513487D
:1028D000006840F00100114908600846406810494E
:1028E00008400E494860084600680E4908400B49F8
:1028F00008600846006820F48020086008464068A8
:1029000020F4FE0048604FF41F008860FFF767FF67
:102910004FF000600449086010BD00000010024044
:102920000000FFF8FFFFF6FE08ED00E000B587B0FD
:1029300001214FF40170FFF745FE00208DF81B00C8
:102940000120ADF8180006A91948FFF7D1F84FF497
:102950000040FFF71BFE1748FEF758FD00200190CE
:102960008DF808008DF809004FF4602003900020D6
:10297000049001208DF8140001A90E48FEF796FD81
:1029800001210C48FEF737FD0A48FEF713FE00BF91
:102990000848FEF780FD0028FAD10648FEF71AFE27
:1029A00000BF0448FEF760FD0028FAD107B000BD63
:1029B000000801400024014070B500F025FD0646E6
:1029C00001F01CF80546044900F01AFF04460349CB
:1029D00001F05CF870BD000000F07F4533335340D8
:1029E0001CB535480088B0F5FA6F32DA20201F2177
:1029F00042F2895331A2CDE9001054210020FFF7A3
:102A0000A5FA10201F2142F289532DA2CDE9001012
:102A100061212020FFF79AFA2748028829A12B4834
:102A2000FDF704FC20201F2142F28953274ACDE9FB
:102A3000001054212C20FFF789FA10201F2142F2A8
:102A4000895323A2CDE900105F218620FFF77EFA8B
:102A500031E020201F2148F6020318A2CDE9001022
:102A600054210020FFF772FA10201F2148F60203BC
:102A700013A2CDE9001061212020FFF767FA0E486C
:102A8000028810A11148FDF7D1FB20201F2148F634
:102A900002030E4ACDE9001054212C20FFF756FA0C
:102AA00010201F2148F6020309A2CDE900105F2182
:102AB0008620FFF74BFA1CBD12000020434F000098
:102AC000320000003A256420200000009E00002013
:102AD00070706D001CB52B4802882BA12D48FDF7A6
:102AE000A5FB28480088642817DA20201F2142F21D
:102AF0008953284ACDE900105421A420FFF726FA73
:102B000010201F2142F2895323A2CDE900105F213A
:102B10004FF49270FFF71AFA32E01A480088C8287A
:102B200017DA20201F214FF641631A4ACDE9001021
:102B30005421A420FFF70AFA10201F214FF6416309
:102B400015A2CDE900105F214FF49270FFF7FEF956
:102B500016E020201F2148F602030E4ACDE900109E
:102B60005421A420FFF7F2F910201F2148F6020398
:102B700009A2CDE900105F214FF49270FFF7E6F94A
:102B80001CBD0000160000205EBCD75EC8A93A2517
:102B9000642020009E000020707062002DE9FC413E
:102BA000002051234FF4A0729F210090FFF774F88A
:102BB0004FF6FF7002234FF4A0729C21009000207A
:102BC000FFF76AF8102000214FF6FF737CA2CDE9D1
:102BD0000010A0210020FFF7B9F9102000214FF6C6
:102BE000FF7378A2CDE90010E0210020FFF7AEF9D5
:102BF000102000214FF6FF7373A2CDE90010C02111
:102C00000020FFF7A3F900243EE07049601C31F872
:102C10001000002836D031F8140000F0EFFE804696
:102C20006B4900F033FF074600F0C8FE85B2674AE3
:102C3000611C32F8110000F0E1FE8046644900F0AA
:102C400025FF074600F0BAFE86B2502D00DD502564
:102C5000502E00DD502642F28950C6F1F007BBB27B
:102C6000671C07EB8707BF0007F11A02C5F1F007E1
:102C7000B9B204EB8407BF00009007F11A00FFF718
:102C8000F9F800BF601CC4B20E2CBEDB00243DE08E
:102C90005049601C31F81000B0B331F8140000F056
:102CA000ADFE80464A4900F0F1FE074600F086FE80
:102CB00085B2484A611C32F8110000F09FFE804640
:102CC000434900F0E3FE074600F078FE86B2502D3F
:102CD00000DD5025502E00DD502648F60200C6F1DA
:102CE000F007BBB2671C07EB8707BF0007F11A02AA
:102CF000C5F1F007B9B204EB8407BF00009007F1FB
:102D00001A00FFF7B7F800BF601CC4B20E2CBFDB7F
:102D10004FF6FF70F0231A229F2100901046FFF714
:102D2000A9F84FF6FF70F0234FF4A07219460090F7
:102D30001A20FFF79FF81020002148F6020326A270
:102D4000CDE90010A2214FF48C70FFF7FFF810209E
:102D5000002142F2895322A2CDE90010A221E120F4
:102D6000FFF7F4F8012411E0142094FBF0F100FBCC
:102D7000114048B94FF6FF7004F1A00319461E2216
:102D800000901A20FFF776F8601CC4B2502CEBDDDF
:102D90001F2410E0142094FBF0F100FB114040B917
:102DA0004FF6FF70F0232246EC2100902046FFF7FB
:102DB00061F8601C84B2B4F5A07FEBDDBDE8FC8156
:102DC000353030002020300032353000D000002077
:102DD0000AD7233EEE000020504D31302D00000078
:102DE000504D322E352D00001CB55548028855A196
:102DF0005748FDF71BFA5248008864280BDA202058
:102E00001F2142F28953524ACDE900101021084691
:102E1000FFF79CF81BE04A480088B0F5967F0BDA74
:102E200020201F214FF64163494ACDE900101021AF
:102E30000846FFF78BF80AE020201F2148F602031E
:102E4000434ACDE9001010210846FFF77FF84148BA
:102E5000028841A13E48FDF7E9F93E480088642810
:102E60000BDA20201F2142F28953394ACDE90010A4
:102E700030211020FFF76AF81BE036480088B0F5D3
:102E8000967F0BDA20201F214FF64163304ACDE9AF
:102E9000001030211020FFF759F80AE020201F21F0
:102EA00048F602032A4ACDE9001030211020FFF72E
:102EB0004DF84FF6FF704023022210210090BA20F7
:102EC000FEF7EAFE4FF6FF7002234FF4A072502186
:102ED00000900020FEF7E0FE194800881D4909888F
:102EE0000844C8280BDA20201F2142F289531DA272
:102EF000CDE900100146C220FFF728F81EE0104877
:102F00000088144909880844B0F5967F0BDA202020
:102F10001F214FF6416316A2CDE900100146C220E1
:102F2000FFF714F80AE020201F2148F6020313A23D
:102F3000CDE900100146C220FFF708F81CBD0000D3
:102F400000000020504D322E353A2564200000004C
:102F50009E00002002000020504D3130203A2564B0
:102F6000202000004151493A205ED3C500000000F6
:102F70004151493A205EC1BC000000004151493A2C
:102F8000205EB2EE0000000010B51C4800F084F98D
:102F9000C1B21B4802780078401C194B18701948C0
:102FA00081540078422806D0164840784D2802D037
:102FB000002019460870124800781F281CDD0020E8
:102FC0000F4908700F48407B0E49097B40EA0120F9
:102FD0000D4908800B48C07B0A49897B40EA0120E3
:102FE0000A490880002005E00649095C084A115496
:102FF000411CC8B22028F7DB10BD0000003801409A
:10300000040000203000002000000020020000200A
:103010005000002010B51F4800F03EF9C1B21E4814
:1030200002780078401C1C4B18701C4881540078B2
:10303000FF2802D000201946087017480078082899
:1030400027DD0020144A10700021012005E0134AFA
:10305000125C0A44D1B2421CD0B20728F7DDC84343
:10306000401CC1B20D48007A884211D10B4840790A
:103070000A4A127940EA0220094A1080002005E03D
:10308000064A125C074B1A54421CD0B20928F7DBDF
:1030900000BF10BD00440040180000208C0000203C
:1030A000160000209500002010B5214800F0F4F82B
:1030B000C1B2204802780078401C1E4B18701E4890
:1030C00081540078FF2806D01B484078862802D01B
:1030D00000201946087017480078082827DD0020CE
:1030E000144A10700021012005E0134A125C0A44C2
:1030F000D1B2421CD0B20728F7DDC843401CC1B290
:103100000D48007A884211D10B48C0780A4A92785B
:1031100040EA0220094A1080002005E0064A125CBD
:10312000074B1A54421CD0B20928F7DB00BF10BD70
:1031300000480040140000207A0000201200002007
:103140008300002021B1828942F40052828104E090
:1031500082894DF6FF731A40828170470246002033
:10316000B1F5007F00D100BF13880B400BB10120E7
:1031700000E000207047F0B503460024002600253B
:10318000002040F66A17B94200D100BF1846C1F3CB
:10319000421401F01F06012707FA06F5012C01D1A0
:1031A0000C3004E0022C01D1103000E014301AB1D0
:1031B00007682F43076002E00768AF430760F0BD70
:1031C0002DE9F04786B005460E460024A24600BF12
:1031D000A1460027B08900B100BF2F462C8A4CF6CB
:1031E000FF700440F08804432C82AC894EF6F31043
:1031F0000440B08831890843718908430443AC8195
:10320000AC8A4FF6FF400440B0890443AC8201A869
:10321000FFF7F8F91F48874202D1DDF810A001E05E
:10322000DDF80CA0A88900F4004040B10AEBCA0008
:1032300000EB0A1031684900B0FBF1F807E00AEB37
:10324000CA0000EB0A1031688900B0FBF1F8642075
:10325000B8FBF0F004012009642101FB1089A88962
:1032600000F4004040B1322000EBC900B0FBF1F0A7
:1032700000F00700044308E0322000EB091064214D
:10328000B0FBF1F000F00F0004432C8106B0BDE864
:10329000F08700000038014001468888C0F308002C
:1032A0007047C1F308028280704700BFFEE700004C
:1032B00000B587B001210420FFF784F901214804FB
:1032C000FFF770F918208DF81B000420ADF81800E6
:1032D00003208DF81A0006A91F48FEF709FC0420F8
:1032E0008DF81B000820ADF8180003208DF81A0097
:1032F00006A91948FEF7FCFB4FF416500290002077
:10330000ADF814000C20ADF812000020ADF810004C
:10331000ADF80E00ADF80C0002A91048FFF750FF01
:10332000012240F225510D48FFF725FF01210B48EE
:10333000FFF708FF26208DF8040001208DF8070014
:1033400003208DF8050002208DF8060001A8FFF784
:10335000E3F807B000BD0000000801400044004051
:10336000490050EAC12018BF04204A0D18BF40F0A0
:10337000010040F2FF72B2EB515F08BF40F0020063
:10338000012808BF0520704730380A2801D20120E3
:1033900070470020704700204FF0E021086170471F
:1033A00042F228314FF0E022516100219161012168
:1033B000116108E000BF4FF0E021096901F480319C
:1033C0000029F8D0401E0028F4D100214FF0E0225F
:1033D0001161704709214FF0E02251610021916194
:1033E0000121116108E000BF4FF0E021096901F4FB
:1033F00080310029F8D0401E0028F4D100214FF080
:10340000E02211617047000010B50723012200215E
:103410000848FEF773F801210648FEF7D0F800BF10
:1034200002210448FEF72EF80028F9D00148FEF7E3
:1034300025F810BD0024014086B0FEF79DFE102047
:103440004FF6FF71002371A2CDE9001070213720E3
:10345000FEF77CFDFFF79FFFFEF7F4FAFEF7E2F8B8
:10346000FEF7F6F9FEF7E4FFFFF722FFFFF75EFA3B
:103470004FF4FA60FFF794FF1F20FEF7F7FB0F21D0
:103480006948FCF7AAFF0F216848FCF7A6FFBBE0DC
:10349000674800780A2190FBF1F201FB120008B99D
:1034A000FFF7A2FC62480078142190FBF1F201FBC7
:1034B000120088BB5F4800780F2813DA5E48008846
:1034C00059495C4A127821F812005C480088574933
:1034D000584A127821F8120056480078401C554985
:1034E000087017E00F215048FEF779F80F214F4878
:1034F000FEF775F8504801884E480078401E4A4A49
:1035000022F810104D4801884A480078401E474A6A
:1035100022F81010FFF742FB45480078052190FB88
:10352000F1F201FB120008B9FEF740F940490878B2
:10353000C11700EB5171C910A0EBC10119B9FEF719
:10354000CFFFFFF74DFA3A4800780A2190FBF1F2DD
:1035500001FB120008B9FFF7BDFA35490878C11719
:1035600000EB91718910A0EB8101B1B9FFF724FA4A
:10357000064600F0ABF8044622460B4630A135481B
:10358000FCF754FE20201F214FF6FF73314ACDE98E
:10359000001078211020FEF7D9FCFEF7E1F9FEF7C4
:1035A00075F8064600F0EEF90446FEF78FF8064679
:1035B00000F0E8F905462848007827494978CDE920
:1035C0000454CDE90210244880782349C978CDE914
:1035D000001021480379827920A11E48FCF726FEBD
:1035E00010204FF6E0711F231A4ACDE90010002188
:1035F0000846FEF7ABFC0E480078401C0C490870EA
:103600004FF47A70FFF7CCFE42E7000053656E730B
:103610006F72732061726520696E697469616C698B
:103620007A696E672E2E2E00D0000020EE0000205A
:103630001A000020190000200000002002000020D5
:103640005EBFD55EC6F85ED6CA5EC1BF3A20252EE3
:10365000336620009E0000200A00002032302564DE
:103660005EC4EA25645ED4C225645EC8D5202564A4
:103670003A25643A256420205ECEC25EB6C83A255B
:1036800064205ECAAA5EB6C83A256425252020209B
:103690002000000010B500290AD00878002807D0C3
:1036A00005487844FDF798FA002801D0002010BDA5
:1036B0000248784410BD00002E330000263300007D
:1036C0000808A0F500114FEA3101704743004FEAA6
:1036D000D30C4FEA3C0C43401FBF40070CF1605134
:1036E00013F0FE4F70471CF0006F03D100200CF068
:1036F000004170470CF0004343EA507010B540EAB7
:10370000CC0000F044FA00BF000000924FEA000134
:10371000FFF7D6BF4FF000414FF00000A1F50021A8
:103720007047000090EA010F48BF81F0004100F1AE
:10373000B282421A3CBF801A89184FEAD0524FF029
:103740007F4C1CEA410FA2EBD15318BF9CEA026FD9
:1037500000F03B804FF0004C4CEA00204CEA012185
:1037600021FA03FC10EB0C0C1ED202F1FF325FEACF
:103770001C2040EBC25038BF70471CF07F0F4FEA4F
:10378000400C18BFBCF17F4F38BF7047C3F1200316
:10379000994008BF20F00100BCF17F4F38BF70474F
:1037A000A0F1C04000F039BA4FEA3C00000A40EBFB
:1037B000C25028BF1CF0FF0F4FEA400CE6D018BFE4
:1037C000BCF17F4F38BF7047EAE79CEA026F05D033
:1037D00010EA5C0F08BF00F00040704710B500F021
:1037E000D6F900BF64FBBE3E401058BFC0F1404058
:1037F000491058BFC1F140418142EFF3008070474A
:103800004FF47F0C1CEAD0121EBF1CEAD11392EABF
:103810000C0F93EA0C0F00F0858090EA010F48BF6F
:1038200042F4807240F4000C41F400002CF07F411F
:1038300020F07F4000B58142A2EB03020FF2081C8A
:10384000ACEB504EC0F100009EF800E04FEA4E0E87
:1038500000FB0EFC38BF49004FEA2C1C02F5FA02AF
:103860000CFB0EF34FEACE1E4FEA112C4FEAC1219A
:103870000EEB635E42EB22420EFB0CFC4FEA1C5344
:1038800000FB03114FEA112C4FEA01310EFB0CFC37
:103890004FEADC4C00FB0C11C14228BF09184CEB6D
:1038A00003335DF804EB10EB410143EBC250B2F57A
:1038B0007C0F38BF704729D512F0F00F1CBF00F104
:1038C000C04000F000407047008182838485868775
:1038D00088898B8C8D8E8F919293959697999A9CCF
:1038E0009D9FA0A2A3A5A7A8AAACAEB0B2B3B5B73E
:1038F000B9BCBEC0C2C5C7C9CCCED1D4D7D9DCDF14
:10390000E2E6E9ECF0F3F7FAFE0000004FEA400CC3
:103910000CF1807CBCF17E4F28BF7047B0F1C040F5
:1039200000F07BB990EA010F0CEAD11348BF42F4D2
:103930008072624538BF634507D213F47F0F16D0FB
:1039400080EA010000F00040704710B500F01FF958
:10395000097EFC3E00F005B880EA010000F000405E
:10396000704780EA010000F0004000F056B912F400
:103970007F0F04BF0248704780EA010000F04DB994
:103980000000C07F41000B0ED3F19E0208D950F415
:1039900000034FEA032323FA02F048BF4042704776
:1039A00010B500F0F4F800BF499224800020704761
:1039B0006FF0004282EA200070470000C10DD1F193
:1039C0009E0206DB4FEA002343F0004323FA02F095
:1039D0007047004207D54FEA4001B1F1FE4F02D2D5
:1039E0004FF00000704710B500F0D1F849922480E4
:1039F000002070476FEA200070470000B0FA80F3A3
:103A000010FA03F2C3F19D030AD0D90501EB12208D
:103A1000530638BF704700F1010008BF20F00100D5
:103A20007047000050EA010C00F113801CF5000FF4
:103A300058BFBCF5000F01D48842704707D710F576
:103A4000000F58BF11F5000F15D488427047894206
:103A500070471CF5000F04D5BCF5000FF7D5814267
:103A600070474FF0807C1CEB400F38BF1CEB410FC0
:103A700001D28142704710B500F089F892244900C4
:103A80004FF000504FF08051FFF7AEBE4FF47F0C67
:103A90001CEAD0121EBF1CEAD11392EA0C0F93EA63
:103AA0000C0F00F0478090EA010F48BF42F480728B
:103AB0004FF0004C4CEA00204CEA012102EB0302DB
:103AC000A0FB0113A2F50002002918BF43F0010377
:103AD0005B0028BF4FEA330342EB22425FEA132C1C
:103AE0004CEBC2502EBFBCEB436FB2F57C0F70475E
:103AF0004FEA036CBCF1004F08BF20F00100B2F5A3
:103B00007C0F38BF70470BD582F0FF0212F5803F63
:103B1000C8BF704700F1C040D8BF00F000407047F8
:103B200000F5000C5FEA4C0C48BF7047B0F1C04094
:103B300000F073B890EA010F0CEAD11348BF42F4C9
:103B40008072624538BF634504D280EA010000F00C
:103B50000040704710B500F01AF800BF8900013E20
:103B600000F007B800F009B85FEA410C5FEA1C6C8E
:103B700008D080EA010000F050B85FEA400C5FEA2C
:103B80001C6CF6D14FF00040A0F5800070470EF19C
:103B9000020E2EF0030E5EF8044B244204D44FEACA
:103BA0004102B2F17F4F11D84FEA4003B3F17F4F8A
:103BB0000CD80ED14FEAD07CB2F17F4F0CEB4C0CFD
:103BC0000CF1020C08BF4CEBD17C04E04FF0080C68
:103BD00001E04FEAD17C0CEB4C0324FA03F404F02F
:103BE0000704B4F1040C06D20EEB840CBDE81040BF
:103BF0004CF0010C6047DFE80CF0070802024FF0C0
:103C00000040A0F5800010BD0846420018BFD2F168
:103C1000807288BF00F0004010BDFF2141EAD05003
:103C2000C005704751EA000C00F113801CF5000F2D
:103C300058BFBCF5000F01D48142704707D711F57A
:103C4000000F58BF10F5000F15D48142704789420C
:103C500070471CF5000F04D5BCF5000FF7D588425E
:103C600070474FF0807C1CEB410F38BF1CEB400FBE
:103C700001D28842704780EA010081EA000180EAAF
:103C80000100FFF7F8BE000090EA010F48BF81F085
:103C900000413FF54EAD421A04D882F00042A0EB3D
:103CA000020011444FEAD0524FF07F4C1CEA410F02
:103CB000A2EBD15318BF9CEA026F4AD04FF0004CE0
:103CC0004CEA00204CEA012121FA03FCB0EB0C0C79
:103CD0000FD412F0FE0F36D05FEA4C001DD5001253
:103CE00040EBC25038BF70471CF03F0F18BF704701
:103CF0000BE0A2F101025FEA1C2040EBC25038BF8A
:103D000070471CF07F0F18BF7047C3F12003994024
:103D100014BF401E20F00100704780084FEA1223B4
:103D200008BF7047B0FA80FCA2EB0C02CCF1280C63
:103D300060FA0CF093EA122F04BF00EBC2507047F8
:103D40004FEAC3707047130A5FEADC1008BF704780
:103D5000F6E79CEA026F04D010EA5C0F08BF00206F
:103D6000704710B5FFF713FF40DFF63E81F00040CB
:103D70007047FCF789BC0000000000000000000054
:103D800000000000000000000008080808080808FB
:103D900000001818000000486C2412000000000009
:103DA0000000000000000000002424247F121212F2
:103DB0007F12121200000000081C2A2A0A0C182880
:103DC000282A2A1C080800000022251515152A5843
:103DD0005454542200000000000C1212120A7625DE
:103DE0002911916E00000006060403000000000087
:103DF000000000000000004020101008080808081B
:103E000008101020400000020408081010101010C4
:103E10001008080402000000000008086B1C1C6B5E
:103E200008080000000000000000080808087F08DB
:103E3000080808000000000000000000000000006A
:103E40000000060604030000000000000000FE0061
:103E50000000000000000000000000000000000062
:103E600000000606000000008040402020101008DE
:103E700008040402020000000018244242424242A8
:103E8000424224180000000000080E080808080834
:103E90000808083E00000000003C4242422020107A
:103EA0000804427E00000000003C424220182040EE
:103EB0004042221C0000000000203028242422223E
:103EC0007E20207800000000007E0202021A2640B8
:103ED0004042221C0000000000382402021A264240
:103EE0004242241800000000007E22221010080820
:103EF0000808080800000000003C42424224182440
:103F00004242423C000000000018244242426458F1
:103F10004040241C000000000000000018180000B1
:103F20000000181800000000000000000008000059
:103F300000000008080400000040201008040204EB
:103F40000810204000000000000000007F0000007A
:103F50007F00000000000000000204081020402044
:103F60001008040200000000003C424246402010BD
:103F70001000181800000000001C225A5555555515
:103F80002D42221C00000000000808181414243CD4
:103F9000224242E700000000001F2222221E22428D
:103FA0004242221F00000000007C42420101010148
:103FB0000142221C00000000001F224242424242F5
:103FC0004242221F00000000003F4212121E121245
:103FD0000242423F00000000003F4212121E121235
:103FE0000202020700000000003C222201010171D0
:103FF0002122221C0000000000E7424242427E4291
:10400000424242E700000000003E08080808080895
:104010000808083E00000000007C1010101010106E
:1040200010101010110F0000007722120A0E0A1251
:1040300012222277000000000007020202020202A0
:104040000202427F000000000077363636362A2A08
:104050002A2A2A6B0000000000E346464A4A5252D0
:104060005262624700000000001C22414141414170
:104070004141221C00000000003F424242423E02F9
:104080000202020700000000001C224141414141A0
:104090004D53321C60000000003F4242423E12126B
:1040A000222242C700000000007C42420204182085
:1040B0004042423E00000000007F4908080808080E
:1040C0000808081C0000000000E742424242424249
:1040D0004242423C0000000000E7424222242414F5
:1040E0001418080800000000006B4949494955555B
:1040F000362222220000000000E74224241818186B
:10410000242442E70000000000772222141408084B
:104110000808081C00000000007E21201010080480
:104120000442423F00000078080808080808080810
:1041300008080808780000000202040408080810B3
:10414000102020204040001E1010101010101010E1
:10415000101010101E000038440000000000000085
:10416000000000000000000000000000000000004F
:104170000000000000FF0006080000000000000032
:10418000000000000000000000000000003C427839
:10419000444242FC0000000000030202021A2642D0
:1041A0004242261A000000000000000000384402CD
:1041B0000202443800000000006040404078444261
:1041C000424264D80000000000000000003C427E33
:1041D0000202423C0000000000F08808087E080847
:1041E0000808083E0000000000000000007C2222B9
:1041F0001C023C42423C000000030202023A4642DA
:10420000424242E700000000000C0C00000E0808CB
:104210000808083E00000000003030000038202070
:1042200020202020221E0000000302020272120A37
:104230001612227700000000000E0808080808087F
:104240000808083E0000000000000000007F929275
:10425000929292B70000000000000000003B46422E
:10426000424242E70000000000000000003C4242E1
:104270004242423C0000000000000000001B2642B9
:104280004242221E02070000000000000078444263
:104290004242447840E000000000000000774C04F7
:1042A0000404041F0000000000000000007C420223
:1042B0003C40423E0000000000000008083E0808A4
:1042C00008080830000000000000000000634242BF
:1042D000424262DC000000000000000000E74224CF
:1042E00024140808000000000000000000EB494909
:1042F000555522220000000000000000007624181E
:104300001818246E000000000000000000E742249E
:10431000241418080807000000000000007E221086
:104320000808447E000000C020202020201020200B
:1043300020202020C000101010101010101010109D
:1043400010101010101000060808080808100808BF
:104350000808080806000C32C20000000000000037
:10436000000000000000000000000000000000004D
:10437000000000000000000000000000000000003D
:10438000000000000000000000000000000000002D
:10439000000000000000000000000000000000001D
:1043A000000000000000000000000000000000000D
:1043B000C001C001C001C001C001C001C001800036
:1043C00080008000800080008000800000000000ED
:1043D000000000008001C003C00380010000000055
:1043E000000000000000000000000000E01CE01CD5
:1043F000F01E700E3807180308018400000000004A
:1044000000000000000000000000000000000000AC
:10441000000000000000000000000000000000009C
:10442000000000000000000000000000000000008C
:10443000000020102010201020102010FE7FFE7F92
:104440001008100810081008100810081008FE7F47
:10445000FE7F0804080408040804080400000000A3
:10446000000000000000000000000000000000014B
:104470000001C00760191031183118391839380196
:104480007001E001C0038007000F001D00390031FA
:104490001C311C310C310C11180DE007000100011A
:1044A000000100000000000000000000000000000B
:1044B00000001C1036186308630C63046304630275
:1044C00063026301361D9C37802280634063406332
:1044D00020632063306310221836081C000000009F
:1044E00000000000000000000000000000000000CC
:1044F0000000F00098018C018C018C018C018C0073
:10450000CC007800183E1C083608320863046304A7
:10451000C304C303834306438E26781C00000000B7
:104520000000000000000000000000001C003C0033
:104530003C003000300010000C00060000000000BD
:10454000000000000000000000000000000000006B
:10455000000000000000000000000000000000005B
:1045600000000000000000000000000000400020EB
:1045700000100008000C0004000600030003000304
:104580008001800180018001800180018001800123
:1045900000030003000300060006000C00080010E2
:1045A00000200040000000000000000002000400A5
:1045B00008001000300020006000C000C000C000F3
:1045C00080018001800180018001800180018001E3
:1045D000C000C000C0006000600030001000080093
:1045E00004000200000000000000000000000000C5
:1045F00000000000000000018003800300011C7126
:104600003C79783DC0070001C007783D3C791C71BA
:104610000001800380038001000000000000000012
:10462000000000000000000000000000000000008A
:104630000000000000000000000100010001000176
:10464000000100010001FC7F0001000100010001E8
:104650000001000100010000000000000000000057
:10466000000000000000000000000000000000004A
:10467000000000000000000000000000000000003A
:10468000000000000000000000000000000000002A
:104690000000000000001C003C003C003000300026
:1046A00010000C00060000000000000000000000E8
:1046B00000000000000000000000000000000000FA
:1046C000000000000000FE7F00000000000000006D
:1046D00000000000000000000000000000000000DA
:1046E00000000000000000000000000000000000CA
:1046F00000000000000000000000000000000000BA
:1047000000000000000000000000000000000000A9
:104710000000000018003C003C00180000000000F1
:1047200000000000000000000000000000400060E9
:1047300000200030001000180008000C00040006E3
:1047400000020003000180018000C0004000600002
:10475000200030001000180008000C0004000600C3
:104760000200000000000000000000000000000047
:104770000000C007600C30181830183018200C608A
:104780000C600C600C600C600C600C600C600C60C9
:104790001820183018303018600CC00700000000D6
:1047A0000000000000000000000000000000000009
:1047B000000000018001F80180018001800180017A
:1047C00080018001800180018001800180018001E1
:1047D0008001800180018001C003F81F00000000FB
:1047E00000000000000000000000000000000000C9
:1047F0000000E007101C0818043004300C300C30A6
:104800000030001800080004000200018000400091
:104810002020102008200430FC1FFC1F0000000096
:104820000000000000000000000000000000000088
:104830000000E003180E0C0C0C180C180C180018D3
:10484000000C0006C003000E0018001000300030FD
:104850000C300C300C100C18180CE0030000000099
:104860000000000000000000000000000000000048
:104870000000000C000E000E000F800E800E400E97
:10488000600E200E100E100E080E040E040EFE7F99
:10489000000E000E000E000E000E000EC07F000085
:1048A0000000000000000000000000000000000008
:1048B0000000F03FF03F100010001000080008005A
:1048C000C807280C181808100030003000300030DD
:1048D0000C300C3004180418080CF0030000000021
:1048E00000000000000000000000000000000000C8
:1048F0000000800FC0102030103018001800080091
:104900000C008C0F6C183C301C600C600C600C6050
:104910000C601860182030306018C00700000000DC
:104920000000000000000000000000000000000087
:104930000000F83FF83F1C100C08040804040004B1
:1049400000020002000100010001800080008000E0
:10495000C000C000C000C000C000C00000000000D7
:104960000000000000000000000000000000000047
:104970000000E007300C18180C300C300C301C30E4
:1049800038187008E007B007180E0C1C06380630FF
:104990000630063006300C18180CE003000000004A
:1049A0000000000000000000000000000000000007
:1049B0000000E00318040C080C180610063006303E
:1049C0000630063006380C3C1836F031003000183E
:1049D000001800180C0C0C060C03F001000000007D
:1049E00000000000000000000000000000000000C7
:1049F00000000000000000000000000000000000B7
:104A00008001C003C003800100000000000000001E
:104A1000000000008001C003C0038001000000000E
:104A20000000000000000000000000000000000086
:104A30000000000000000000000000000000000076
:104A4000C000C000000000000000000000000000E6
:104A50000000000000000000C000C00080008000D6
:104A600040004000000000000000000000000000C6
:104A70000020001000080004000600038001C000B0
:104A80006000300018000C00180030006000C0000A
:104A90008001000300060004000800100020000050
:104AA0000000000000000000000000000000000006
:104AB00000000000000000000000000000000000F6
:104AC000FE7F00000000000000000000FE7F0000EC
:104AD00000000000000000000000000000000000D6
:104AE00000000000000000000000000000000000C6
:104AF00004000800100020006000C00080010003D6
:104B00000006000C001800300018000C000600031E
:104B10008001C000600020001000080004000000B8
:104B20000000000000000000000000000000000085
:104B3000C0073018083008600C601C601C601C60E6
:104B40000030001C00060001800080008000800012
:104B5000000000008001C003C003800100000000CD
:104B60000000000000000000000000000000000045
:104B70000000C0076018103018200C2F8C4D864C98
:104B8000C64CC64C664C6644664466266626661568
:104B9000CC1C0C40082018303018C0070000000062
:104BA0000000000000000000000000000000000005
:104BB0000001C001C001C0014001600320032003C7
:104BC00020033006100610061006F80F080C080C1B
:104BD000080C0C0C0418041806181F7C00000000B8
:104BE00000000000000000000000000000000000C5
:104BF0000000FE07181C183818301830183018300C
:104C00001818180CF80718181830182018601860B1
:104C100018601860186018301818FE0F00000000A7
:104C20000000000000000000000000000000000084
:104C30000000C0276038103018200C400C400400E1
:104C40000600060006000600060006000600060034
:104C50000C400C400C2018303018C0070000000039
:104C60000000000000000000000000000000000044
:104C70000000FE03180E181818301830183018608D
:104C80001860186018601860186018601860186064
:104C90001830183018101818180EFE030000000005
:104CA0000000000000000000000000000000000004
:104CB0000000FE3F1830182018601840180018082F
:104CC0001808180CF80F180C180818081800180005
:104CD00018001840184018201830FE3F000000004F
:104CE00000000000000000000000000000000000C4
:104CF0000000FE7F1870184018C0188018001810A7
:104D000018101818F81F1818181018101800180084
:104D1000180018001800180018007E00000000009D
:104D20000000000000000000000000000000000083
:104D30000000C013701C101018100C200C20040070
:104D40000600060006000600060006FC06300630D7
:104D50000C300C30183018303008C007000000004C
:104D60000000000000000000000000000000000043
:104D700000003F7E0C180C180C180C180C180C189E
:104D80000C180C180C18FC1F0C180C180C180C180C
:104D90000C180C180C180C180C183F7E00000000A2
:104DA0000000000000000000000000000000000003
:104DB0000000F81F800180018001800180018001D6
:104DC00080018001800180018001800180018001DB
:104DD00080018001800180018001F81F0000000037
:104DE00000000000000000000000000000000000C3
:104DF0000000E07F00060006000600060006000630
:104E00000006000600060006000600060006000672
:104E100000060006000600060006000600060E0654
:104E20000E038E01FC0000000000000000000000E6
:104E300000007E7C181818081804180618021801BB
:104E400098019801D801B803380318071806180EFE
:104E5000180C181C1818183018307EFC00000000C0
:104E60000000000000000000000000000000000042
:104E700000007E0018001800180018001800180024
:104E80001800180018001800180018001800180062
:104E900018001840184018201830FE3F000000008D
:104EA0000000000000000000000000000000000002
:104EB00000001FF81C381C381C381C3C34343434B7
:104EC0003434343674326432643264326431C4311E
:104ED000C431C431C430C43084309FFC00000000B1
:104EE00000000000000000000000000000000000C2
:104EF00000001F7C1C103C1034103410741064101F
:104F0000E410C410C411841184130413041704168C
:104F1000041E041C041C041C04181F1800000000BC
:104F20000000000000000000000000000000000081
:104F30000000C003300C181808100C300C3006604C
:104F40000660066006600660066006600660066031
:104F50000C200C3008101818300CC00300000000A2
:104F60000000000000000000000000000000000041
:104F70000000FE0F181818301860186018601860CC
:104F8000186018301818F80F1800180018001800CA
:104F9000180018001800180018007E00000000001B
:104FA0000000000000000000000000000000000001
:104FB0000000C003300C18180C100C300C200660D8
:104FC00006600660066006600660066006600660B1
:104FD000E4612C331C321816300EC007004C007CE4
:104FE0000038000000000000000000000000000089
:104FF0000000FE07181C1838183018301830183008
:105000001818180CF807980318031807180618063C
:10501000180E180C180C181C18187E7800000000C8
:105020000000000000000000000000000000000080
:105030000000E027303818300C200C200C000C0049
:1050400018007800E003800F001E00380070006038
:1050500004600460086018303818C80F00000000B1
:105060000000000000000000000000000000000040
:105070000000FC3F8C2184618241824180018001DB
:105080008001800180018001800180018001800118
:1050900080018001800180018001E00700000000A4
:1050A0000000000000000000000000000000000000
:1050B00000003F7C0C100C100C100C100C100C108D
:1050C0000C100C100C100C100C100C100C100C1000
:1050D0000C100C100C1008083804E003000000004D
:1050E00000000000000000000000000000000000C0
:1050F00000003EF818201820182030103010301012
:105100003010600860086008E00CC004C004C004EF
:105110008003800380038003000100010000000081
:10512000000000000000000000000000000000007F
:105130000000DFF38661862186218C210C218C23DF
:105140008C138C138C134C1358125816580E380E9F
:10515000380E380E300C100410041004000000004B
:10516000000000000000000000000000000000003F
:1051700000007E3E180838083004300470026002D7
:10518000E001C001C0018001800340034007200608
:105190002006100C100C081808183E7C00000000B7
:1051A00000000000000000000000000000000000FF
:1051B00000007E7C1C10181018083008300C700499
:1051C00060046002C002C002C00180018001800151
:1051D00080018001800180018001E0070000000063
:1051E00000000000000000000000000000000000BF
:1051F0000000F83F18180818040C040E00060007F9
:10520000000380038001C001C000E0006000700066
:105210003000382018201C100C18FE1F0000000061
:10522000000000000000000000000000C03F40003F
:10523000400040004000400040004000400040006E
:10524000400040004000400040004000400040005E
:10525000400040004000400040004000400040004E
:10526000C03F00000000000000000000000000003F
:1052700008001800180010003000200060006000D6
:105280004000C00080008001800100010003000296
:10529000000600060004000C0008001800180010AA
:1052A000003000200000000000000000FC030002AD
:1052B00000020002000200020002000200020002DE
:1052C00000020002000200020002000200020002CE
:1052D00000020002000200020002000200020002BE
:1052E000FC03000000000000000000008007C00672
:1052F0002008101000000000000000000000000066
:10530000000000000000000000000000000000009D
:10531000000000000000000000000000000000008D
:10532000000000000000000000000000000000007D
:10533000000000000000000000000000000000006D
:10534000000000000000000000000000000000005D
:10535000000000000000000000000000000000004D
:1053600000000000FFFF0000000000007800C00007
:10537000000100000000000000000000000000002C
:10538000000000000000000000000000000000001D
:10539000000000000000000000000000000000000D
:1053A00000000000000000000000000000000000FD
:1053B00000000000000000000000000000000000ED
:1053C000F00318060C0C0C0C000C800F700C1C0C5D
:1053D0000C0C060C060C064C0C4FF83800000000B4
:1053E00000000000000000000000000000000000BD
:1053F00010001E00180018001800180018001800EF
:10540000180FD818383038601860186018601860A5
:1054100018601860182038307818C807000000009D
:10542000000000000000000000000000000000007C
:10543000000000000000000000000000000000006C
:10544000C007700C181818180C180C000C000C0071
:105450000C000C20182018103008C00700000000B5
:10546000000000000000000000000000000000003C
:105470000010001E0018001800180018001800186E
:10548000E01B301C181818180C180C180C180C18E5
:105490000C180C180818181C307AE00900000000DD
:1054A00000000000000000000000000000000000FC
:1054B00000000000000000000000000000000000EC
:1054C000C007300C181808100C300C30FC3F0C00D2
:1054D0000C000C00182018107018C0070000000005
:1054E00000000000000000000000000000000000BC
:1054F0000000003E80C380C0C0C0C000C000C0002B
:10550000FC1FC000C000C000C000C000C000C00040
:10551000C000C000C000C000C000F80F00000000C4
:10552000000000000000000000000000000000007B
:10553000000000000000000000000000000000006B
:10554000C077306C10181818181818181018300C6C
:10555000F00718001800F00FF03F08700C600C60A6
:105560000C603838E00F0000000000000000000070
:1055700010001E001800180018001800180018006D
:10558000980FD818383018301830183018301830B4
:10559000183018301830183018307EFC0000000029
:1055A00000000000000000000000000000000000FB
:1055B0000000800380038003000000000000000161
:1055C000F80180018001800180018001800180015B
:1055D00080018001800180018001F81F000000002F
:1055E00000000000000000000000000000000000BB
:1055F00000000038003800380000000000000010F3
:10560000801F001800180018001800180018001853
:1056100000180018001800180018001800180018CA
:10562000180C1806F0030000000000000000000045
:1056300010001E00180018001800180018001800AC
:10564000183E180C1806180318019801D8013803E1
:1056500018071806180C181C18187E7C000000008B
:10566000000000000000000000000000000000003A
:105670000001F8018001800180018001800180012A
:105680008001800180018001800180018001800112
:1056900080018001800180018001F81F000000006E
:1056A00000000000000000000000000000000000FA
:1056B00000000000000000000000000000000800E2
:1056C000EE1C9C338C318C318C318C318C318C3193
:1056D0008C318C318C318C318C31DE7B00000000C0
:1056E00000000000000000000000000000000000BA
:1056F000000000000000000000000000000010009A
:105700001E0FD818383018301830183018301830AC
:10571000183018301830183018307EFC00000000A7
:105720000000000000000000000000000000000079
:105730000000000000000000000000000000000069
:10574000C007701C103018300C600C600C600C60CE
:105750000C600C60183018303018C00700000000D2
:105760000000000000000000000000000000000039
:105770000000000000000000000000000000100019
:105780009E0F58183830182018601860186018607C
:10579000186018601830383078189807180018000A
:1057A000180018007E00000000000000000000004B
:1057B00000000000000000000000000000000000E9
:1057C000C023303C183818300C300C300C300C3002
:1057D0000C300C3008301838303CE03300300030EA
:1057E0000030003000FC000000000000000000005D
:1057F0000000000000000000000000000000600049
:105800007E3C60666061E000E00060006000600077
:1058100060006000600060006000FE0700000000A3
:105820000000000000000000000000000000000078
:105830000000000000000000000000000000000068
:10584000E02730381830182018007000E003800F6F
:10585000001C043004300C301C18EC0F0000000059
:105860000000000000000000000000000000000038
:10587000000000000000800080008000C000E00008
:10588000FC1FC000C000C000C000C000C000C000BD
:10589000C000C000C020C0208011000F0000000028
:1058A00000000000000000000000000000000000F8
:1058B00000000000000000000000000000001020B8
:1058C0001E3C183018301830183018301830183086
:1058D000183018301830183830F4E0130000000089
:1058E00000000000000000000000000000000000B8
:1058F00000000000000000000000000000000000A8
:105900007E3C181818083808300430047002600211
:105910006002E001C001C001C00080000000000082
:105920000000000000000000000000000000000077
:105930000000000000000000000000000000000067
:10594000DFF78E630C238C238C239813981358163F
:105950005816700E700E700E200420040000000017
:105960000000000000000000000000000000000037
:105970000000000000000000000000000000000027
:10598000FC3E70087004E004C002C0018003800384
:1059900040076006200C100C18183E7E0000000026
:1059A00000000000000000000000000000000000F7
:1059B00000000000000000000000000000000000E7
:1059C0007E7C181818083008300830046004600421
:1059D000C002C002C00280018001800180008000FE
:1059E00080004C003C0000000000000000000000AF
:1059F00000000000000000000000000000000000A7
:105A0000FC1F0C0C040E0406000380038001C00080
:105A1000E0007020302038301C18FC1F000000000F
:105A2000000000000000000000000000003000083E
:105A30000004000400040004000400040004000446
:105A400000040004000280010002000400040004BD
:105A50000004000400040004000400040004000426
:105A600000080030000000010001000100010001F9
:105A7000000100010001000100010001000100011E
:105A8000000100010001000100010001000100010E
:105A900000010001000100010001000100010001FE
:105AA0000001000100010000000000000C001000D7
:105AB00020002000200020002000200020002000E6
:105AC0002000200040008001400020002000200035
:105AD00020002000200020002000200020002000C6
